{
  "contractName": "AlphaBytes",
  "abi": [
    {
      "inputs": [
        {
          "internalType": "string",
          "name": "_name",
          "type": "string"
        },
        {
          "internalType": "string",
          "name": "_symbol",
          "type": "string"
        },
        {
          "internalType": "string",
          "name": "_initBaseURI",
          "type": "string"
        },
        {
          "internalType": "string",
          "name": "_initNotRevealedUri",
          "type": "string"
        }
      ],
      "stateMutability": "nonpayable",
      "type": "constructor"
    },
    {
      "anonymous": false,
      "inputs": [
        {
          "indexed": true,
          "internalType": "address",
          "name": "owner",
          "type": "address"
        },
        {
          "indexed": true,
          "internalType": "address",
          "name": "approved",
          "type": "address"
        },
        {
          "indexed": true,
          "internalType": "uint256",
          "name": "tokenId",
          "type": "uint256"
        }
      ],
      "name": "Approval",
      "type": "event"
    },
    {
      "anonymous": false,
      "inputs": [
        {
          "indexed": true,
          "internalType": "address",
          "name": "owner",
          "type": "address"
        },
        {
          "indexed": true,
          "internalType": "address",
          "name": "operator",
          "type": "address"
        },
        {
          "indexed": false,
          "internalType": "bool",
          "name": "approved",
          "type": "bool"
        }
      ],
      "name": "ApprovalForAll",
      "type": "event"
    },
    {
      "anonymous": false,
      "inputs": [
        {
          "indexed": true,
          "internalType": "address",
          "name": "previousOwner",
          "type": "address"
        },
        {
          "indexed": true,
          "internalType": "address",
          "name": "newOwner",
          "type": "address"
        }
      ],
      "name": "OwnershipTransferred",
      "type": "event"
    },
    {
      "anonymous": false,
      "inputs": [
        {
          "indexed": true,
          "internalType": "address",
          "name": "from",
          "type": "address"
        },
        {
          "indexed": true,
          "internalType": "address",
          "name": "to",
          "type": "address"
        },
        {
          "indexed": true,
          "internalType": "uint256",
          "name": "tokenId",
          "type": "uint256"
        }
      ],
      "name": "Transfer",
      "type": "event"
    },
    {
      "inputs": [
        {
          "internalType": "address",
          "name": "",
          "type": "address"
        }
      ],
      "name": "addressMintedBalance",
      "outputs": [
        {
          "internalType": "uint256",
          "name": "",
          "type": "uint256"
        }
      ],
      "stateMutability": "view",
      "type": "function"
    },
    {
      "inputs": [
        {
          "internalType": "address",
          "name": "to",
          "type": "address"
        },
        {
          "internalType": "uint256",
          "name": "tokenId",
          "type": "uint256"
        }
      ],
      "name": "approve",
      "outputs": [],
      "stateMutability": "nonpayable",
      "type": "function"
    },
    {
      "inputs": [
        {
          "internalType": "address",
          "name": "owner",
          "type": "address"
        }
      ],
      "name": "balanceOf",
      "outputs": [
        {
          "internalType": "uint256",
          "name": "",
          "type": "uint256"
        }
      ],
      "stateMutability": "view",
      "type": "function"
    },
    {
      "inputs": [],
      "name": "baseExtension",
      "outputs": [
        {
          "internalType": "string",
          "name": "",
          "type": "string"
        }
      ],
      "stateMutability": "view",
      "type": "function"
    },
    {
      "inputs": [],
      "name": "baseURI",
      "outputs": [
        {
          "internalType": "string",
          "name": "",
          "type": "string"
        }
      ],
      "stateMutability": "view",
      "type": "function"
    },
    {
      "inputs": [],
      "name": "cost",
      "outputs": [
        {
          "internalType": "uint256",
          "name": "",
          "type": "uint256"
        }
      ],
      "stateMutability": "view",
      "type": "function"
    },
    {
      "inputs": [
        {
          "internalType": "uint256",
          "name": "tokenId",
          "type": "uint256"
        }
      ],
      "name": "getApproved",
      "outputs": [
        {
          "internalType": "address",
          "name": "",
          "type": "address"
        }
      ],
      "stateMutability": "view",
      "type": "function"
    },
    {
      "inputs": [
        {
          "internalType": "address",
          "name": "owner",
          "type": "address"
        },
        {
          "internalType": "address",
          "name": "operator",
          "type": "address"
        }
      ],
      "name": "isApprovedForAll",
      "outputs": [
        {
          "internalType": "bool",
          "name": "",
          "type": "bool"
        }
      ],
      "stateMutability": "view",
      "type": "function"
    },
    {
      "inputs": [],
      "name": "maxMintAmount",
      "outputs": [
        {
          "internalType": "uint256",
          "name": "",
          "type": "uint256"
        }
      ],
      "stateMutability": "view",
      "type": "function"
    },
    {
      "inputs": [],
      "name": "maxSupply",
      "outputs": [
        {
          "internalType": "uint256",
          "name": "",
          "type": "uint256"
        }
      ],
      "stateMutability": "view",
      "type": "function"
    },
    {
      "inputs": [],
      "name": "name",
      "outputs": [
        {
          "internalType": "string",
          "name": "",
          "type": "string"
        }
      ],
      "stateMutability": "view",
      "type": "function"
    },
    {
      "inputs": [],
      "name": "nftPerAddressLimit",
      "outputs": [
        {
          "internalType": "uint256",
          "name": "",
          "type": "uint256"
        }
      ],
      "stateMutability": "view",
      "type": "function"
    },
    {
      "inputs": [],
      "name": "notRevealedUri",
      "outputs": [
        {
          "internalType": "string",
          "name": "",
          "type": "string"
        }
      ],
      "stateMutability": "view",
      "type": "function"
    },
    {
      "inputs": [],
      "name": "onlyWhitelisted",
      "outputs": [
        {
          "internalType": "bool",
          "name": "",
          "type": "bool"
        }
      ],
      "stateMutability": "view",
      "type": "function"
    },
    {
      "inputs": [],
      "name": "owner",
      "outputs": [
        {
          "internalType": "address",
          "name": "",
          "type": "address"
        }
      ],
      "stateMutability": "view",
      "type": "function"
    },
    {
      "inputs": [
        {
          "internalType": "uint256",
          "name": "tokenId",
          "type": "uint256"
        }
      ],
      "name": "ownerOf",
      "outputs": [
        {
          "internalType": "address",
          "name": "",
          "type": "address"
        }
      ],
      "stateMutability": "view",
      "type": "function"
    },
    {
      "inputs": [],
      "name": "paused",
      "outputs": [
        {
          "internalType": "bool",
          "name": "",
          "type": "bool"
        }
      ],
      "stateMutability": "view",
      "type": "function"
    },
    {
      "inputs": [],
      "name": "renounceOwnership",
      "outputs": [],
      "stateMutability": "nonpayable",
      "type": "function"
    },
    {
      "inputs": [],
      "name": "revealed",
      "outputs": [
        {
          "internalType": "bool",
          "name": "",
          "type": "bool"
        }
      ],
      "stateMutability": "view",
      "type": "function"
    },
    {
      "inputs": [
        {
          "internalType": "address",
          "name": "from",
          "type": "address"
        },
        {
          "internalType": "address",
          "name": "to",
          "type": "address"
        },
        {
          "internalType": "uint256",
          "name": "tokenId",
          "type": "uint256"
        }
      ],
      "name": "safeTransferFrom",
      "outputs": [],
      "stateMutability": "nonpayable",
      "type": "function"
    },
    {
      "inputs": [
        {
          "internalType": "address",
          "name": "from",
          "type": "address"
        },
        {
          "internalType": "address",
          "name": "to",
          "type": "address"
        },
        {
          "internalType": "uint256",
          "name": "tokenId",
          "type": "uint256"
        },
        {
          "internalType": "bytes",
          "name": "_data",
          "type": "bytes"
        }
      ],
      "name": "safeTransferFrom",
      "outputs": [],
      "stateMutability": "nonpayable",
      "type": "function"
    },
    {
      "inputs": [
        {
          "internalType": "address",
          "name": "operator",
          "type": "address"
        },
        {
          "internalType": "bool",
          "name": "approved",
          "type": "bool"
        }
      ],
      "name": "setApprovalForAll",
      "outputs": [],
      "stateMutability": "nonpayable",
      "type": "function"
    },
    {
      "inputs": [
        {
          "internalType": "bytes4",
          "name": "interfaceId",
          "type": "bytes4"
        }
      ],
      "name": "supportsInterface",
      "outputs": [
        {
          "internalType": "bool",
          "name": "",
          "type": "bool"
        }
      ],
      "stateMutability": "view",
      "type": "function"
    },
    {
      "inputs": [],
      "name": "symbol",
      "outputs": [
        {
          "internalType": "string",
          "name": "",
          "type": "string"
        }
      ],
      "stateMutability": "view",
      "type": "function"
    },
    {
      "inputs": [
        {
          "internalType": "uint256",
          "name": "index",
          "type": "uint256"
        }
      ],
      "name": "tokenByIndex",
      "outputs": [
        {
          "internalType": "uint256",
          "name": "",
          "type": "uint256"
        }
      ],
      "stateMutability": "view",
      "type": "function"
    },
    {
      "inputs": [
        {
          "internalType": "address",
          "name": "owner",
          "type": "address"
        },
        {
          "internalType": "uint256",
          "name": "index",
          "type": "uint256"
        }
      ],
      "name": "tokenOfOwnerByIndex",
      "outputs": [
        {
          "internalType": "uint256",
          "name": "",
          "type": "uint256"
        }
      ],
      "stateMutability": "view",
      "type": "function"
    },
    {
      "inputs": [],
      "name": "totalSupply",
      "outputs": [
        {
          "internalType": "uint256",
          "name": "",
          "type": "uint256"
        }
      ],
      "stateMutability": "view",
      "type": "function"
    },
    {
      "inputs": [
        {
          "internalType": "address",
          "name": "from",
          "type": "address"
        },
        {
          "internalType": "address",
          "name": "to",
          "type": "address"
        },
        {
          "internalType": "uint256",
          "name": "tokenId",
          "type": "uint256"
        }
      ],
      "name": "transferFrom",
      "outputs": [],
      "stateMutability": "nonpayable",
      "type": "function"
    },
    {
      "inputs": [
        {
          "internalType": "address",
          "name": "newOwner",
          "type": "address"
        }
      ],
      "name": "transferOwnership",
      "outputs": [],
      "stateMutability": "nonpayable",
      "type": "function"
    },
    {
      "inputs": [
        {
          "internalType": "address",
          "name": "",
          "type": "address"
        }
      ],
      "name": "whitelistedAddresses",
      "outputs": [
        {
          "internalType": "bool",
          "name": "",
          "type": "bool"
        }
      ],
      "stateMutability": "view",
      "type": "function"
    },
    {
      "inputs": [
        {
          "internalType": "uint256",
          "name": "_mintAmount",
          "type": "uint256"
        }
      ],
      "name": "mint",
      "outputs": [],
      "stateMutability": "payable",
      "type": "function"
    },
    {
      "inputs": [
        {
          "internalType": "address",
          "name": "_user",
          "type": "address"
        }
      ],
      "name": "isWhitelisted",
      "outputs": [
        {
          "internalType": "bool",
          "name": "",
          "type": "bool"
        }
      ],
      "stateMutability": "view",
      "type": "function"
    },
    {
      "inputs": [
        {
          "internalType": "address",
          "name": "_owner",
          "type": "address"
        }
      ],
      "name": "walletOfOwner",
      "outputs": [
        {
          "internalType": "uint256[]",
          "name": "",
          "type": "uint256[]"
        }
      ],
      "stateMutability": "view",
      "type": "function"
    },
    {
      "inputs": [
        {
          "internalType": "uint256",
          "name": "tokenId",
          "type": "uint256"
        }
      ],
      "name": "tokenURI",
      "outputs": [
        {
          "internalType": "string",
          "name": "",
          "type": "string"
        }
      ],
      "stateMutability": "view",
      "type": "function"
    },
    {
      "inputs": [],
      "name": "reveal",
      "outputs": [],
      "stateMutability": "nonpayable",
      "type": "function"
    },
    {
      "inputs": [
        {
          "internalType": "uint256",
          "name": "_limit",
          "type": "uint256"
        }
      ],
      "name": "setNftPerAddressLimit",
      "outputs": [],
      "stateMutability": "nonpayable",
      "type": "function"
    },
    {
      "inputs": [
        {
          "internalType": "uint256",
          "name": "_newCost",
          "type": "uint256"
        }
      ],
      "name": "setCost",
      "outputs": [],
      "stateMutability": "nonpayable",
      "type": "function"
    },
    {
      "inputs": [
        {
          "internalType": "string",
          "name": "_newBaseURI",
          "type": "string"
        }
      ],
      "name": "setBaseURI",
      "outputs": [],
      "stateMutability": "nonpayable",
      "type": "function"
    },
    {
      "inputs": [
        {
          "internalType": "string",
          "name": "_newBaseExtension",
          "type": "string"
        }
      ],
      "name": "setBaseExtension",
      "outputs": [],
      "stateMutability": "nonpayable",
      "type": "function"
    },
    {
      "inputs": [
        {
          "internalType": "string",
          "name": "_notRevealedURI",
          "type": "string"
        }
      ],
      "name": "setNotRevealedURI",
      "outputs": [],
      "stateMutability": "nonpayable",
      "type": "function"
    },
    {
      "inputs": [
        {
          "internalType": "bool",
          "name": "_state",
          "type": "bool"
        }
      ],
      "name": "pause",
      "outputs": [],
      "stateMutability": "nonpayable",
      "type": "function"
    },
    {
      "inputs": [
        {
          "internalType": "bool",
          "name": "_state",
          "type": "bool"
        }
      ],
      "name": "setOnlyWhitelisted",
      "outputs": [],
      "stateMutability": "nonpayable",
      "type": "function"
    },
    {
      "inputs": [
        {
          "internalType": "address[]",
          "name": "_users",
          "type": "address[]"
        }
      ],
      "name": "whitelistUsers",
      "outputs": [],
      "stateMutability": "nonpayable",
      "type": "function"
    },
    {
      "inputs": [
        {
          "internalType": "address",
          "name": "_user",
          "type": "address"
        }
      ],
      "name": "whitelistUser",
      "outputs": [],
      "stateMutability": "nonpayable",
      "type": "function"
    },
    {
      "inputs": [],
      "name": "withdraw",
      "outputs": [],
      "stateMutability": "payable",
      "type": "function"
    }
  ],
  "bytecode": "0x60c06040526005608081905264173539b7b760d91b60a09081526200002891600c919062000219565b50670de0b6b3a7640000600e556091600f55600a60108190556011556012805462ffffff1916620100001790553480156200006257600080fd5b50604051620030fb380380620030fb83398101604081905262000085916200036a565b8351849084906200009e90600090602085019062000219565b508051620000b490600190602084019062000219565b505050620000d1620000cb620000f160201b60201c565b620000f5565b620000dc8262000147565b620000e781620001af565b50505050620004a6565b3390565b600a80546001600160a01b038381166001600160a01b0319831681179093556040519116919082907f8be0079c531659141344cd1fd0a4f28419497f9722a3daafe3b4186f6b6457e090600090a35050565b62000151620000f1565b6001600160a01b0316620001646200020a565b6001600160a01b031614620001965760405162461bcd60e51b81526004016200018d906200041e565b60405180910390fd5b8051620001ab90600b90602084019062000219565b5050565b620001b9620000f1565b6001600160a01b0316620001cc6200020a565b6001600160a01b031614620001f55760405162461bcd60e51b81526004016200018d906200041e565b8051620001ab90600d90602084019062000219565b600a546001600160a01b031690565b828054620002279062000453565b90600052602060002090601f0160209004810192826200024b576000855562000296565b82601f106200026657805160ff191683800117855562000296565b8280016001018555821562000296579182015b828111156200029657825182559160200191906001019062000279565b50620002a4929150620002a8565b5090565b5b80821115620002a45760008155600101620002a9565b600082601f830112620002d0578081fd5b81516001600160401b0380821115620002ed57620002ed62000490565b6040516020601f8401601f191682018101838111838210171562000315576200031562000490565b60405283825285840181018710156200032c578485fd5b8492505b838310156200034f578583018101518284018201529182019162000330565b838311156200036057848185840101525b5095945050505050565b6000806000806080858703121562000380578384fd5b84516001600160401b038082111562000397578586fd5b620003a588838901620002bf565b95506020870151915080821115620003bb578485fd5b620003c988838901620002bf565b94506040870151915080821115620003df578384fd5b620003ed88838901620002bf565b9350606087015191508082111562000403578283fd5b506200041287828801620002bf565b91505092959194509250565b6020808252818101527f4f776e61626c653a2063616c6c6572206973206e6f7420746865206f776e6572604082015260600190565b6002810460018216806200046857607f821691505b602082108114156200048a57634e487b7160e01b600052602260045260246000fd5b50919050565b634e487b7160e01b600052604160045260246000fd5b612c4580620004b66000396000f3fe6080604052600436106102725760003560e01c806355f804b31161014f578063a475b5dd116100c1578063d5abeb011161007a578063d5abeb01146106d9578063da3ef23f146106ee578063e985e9c51461070e578063edec5f271461072e578063f2c4ce1e1461074e578063f2fde38b1461076e57610272565b8063a475b5dd1461063a578063b88d4fde1461064f578063ba7d2c761461066f578063c668286214610684578063c87b56dd14610699578063d0eb26b0146106b957610272565b8063715018a611610113578063715018a6146105b35780638da5cb5b146105c857806395d89b41146105dd5780639c70b512146105f2578063a0712d6814610607578063a22cb4651461061a57610272565b806355f804b3146105295780635c975abb146105495780636352211e1461055e5780636c0360eb1461057e57806370a082311461059357610272565b806323b872dd116101e857806342842e0e116101ac57806342842e0e14610467578063438b63001461048757806344a0d68a146104b45780634a4c560d146104d45780634f6ccce7146104f4578063518302271461051457610272565b806323b872dd146103df5780632f745c59146103ff5780633af32abf1461041f5780633c9527641461043f5780633ccfd60b1461045f57610272565b8063081c8c441161023a578063081c8c441461033e578063095ea7b31461035357806313faede61461037357806318160ddd1461039557806318cae269146103aa578063239c70ae146103ca57610272565b806301ffc9a71461027757806302329a29146102ad57806306c933d8146102cf57806306fdde03146102ef578063081812fc14610311575b600080fd5b34801561028357600080fd5b506102976102923660046121fe565b61078e565b6040516102a4919061241a565b60405180910390f35b3480156102b957600080fd5b506102cd6102c83660046121e4565b6107bb565b005b3480156102db57600080fd5b506102976102ea366004612023565b610816565b3480156102fb57600080fd5b5061030461082b565b6040516102a49190612425565b34801561031d57600080fd5b5061033161032c36600461227c565b6108bd565b6040516102a49190612385565b34801561034a57600080fd5b50610304610900565b34801561035f57600080fd5b506102cd61036e36600461214c565b61098e565b34801561037f57600080fd5b50610388610a26565b6040516102a49190612aaa565b3480156103a157600080fd5b50610388610a2c565b3480156103b657600080fd5b506103886103c5366004612023565b610a32565b3480156103d657600080fd5b50610388610a44565b3480156103eb57600080fd5b506102cd6103fa36600461206f565b610a4a565b34801561040b57600080fd5b5061038861041a36600461214c565b610a82565b34801561042b57600080fd5b5061029761043a366004612023565b610ad4565b34801561044b57600080fd5b506102cd61045a3660046121e4565b610af2565b6102cd610b4d565b34801561047357600080fd5b506102cd61048236600461206f565b610bff565b34801561049357600080fd5b506104a76104a2366004612023565b610c1a565b6040516102a491906123d6565b3480156104c057600080fd5b506102cd6104cf36600461227c565b610cd8565b3480156104e057600080fd5b506102cd6104ef366004612023565b610d1c565b34801561050057600080fd5b5061038861050f36600461227c565b610d7f565b34801561052057600080fd5b50610297610dda565b34801561053557600080fd5b506102cd610544366004612236565b610de8565b34801561055557600080fd5b50610297610e3e565b34801561056a57600080fd5b5061033161057936600461227c565b610e47565b34801561058a57600080fd5b50610304610e7c565b34801561059f57600080fd5b506103886105ae366004612023565b610e89565b3480156105bf57600080fd5b506102cd610ecd565b3480156105d457600080fd5b50610331610f18565b3480156105e957600080fd5b50610304610f27565b3480156105fe57600080fd5b50610297610f36565b6102cd61061536600461227c565b610f45565b34801561062657600080fd5b506102cd610635366004612123565b6110f6565b34801561064657600080fd5b506102cd6111c4565b34801561065b57600080fd5b506102cd61066a3660046120aa565b611214565b34801561067b57600080fd5b50610388611253565b34801561069057600080fd5b50610304611259565b3480156106a557600080fd5b506103046106b436600461227c565b611266565b3480156106c557600080fd5b506102cd6106d436600461227c565b61138d565b3480156106e557600080fd5b506103886113d1565b3480156106fa57600080fd5b506102cd610709366004612236565b6113d7565b34801561071a57600080fd5b5061029761072936600461203d565b611429565b34801561073a57600080fd5b506102cd610749366004612175565b611457565b34801561075a57600080fd5b506102cd610769366004612236565b611516565b34801561077a57600080fd5b506102cd610789366004612023565b611568565b60006001600160e01b0319821663780e9d6360e01b14806107b357506107b3826115d6565b90505b919050565b6107c3611616565b6001600160a01b03166107d4610f18565b6001600160a01b0316146108035760405162461bcd60e51b81526004016107fa90612835565b60405180910390fd5b6012805460ff1916911515919091179055565b60136020526000908152604090205460ff1681565b60606000805461083a90612b4d565b80601f016020809104026020016040519081016040528092919081815260200182805461086690612b4d565b80156108b35780601f10610888576101008083540402835291602001916108b3565b820191906000526020600020905b81548152906001019060200180831161089657829003601f168201915b5050505050905090565b60006108c88261161a565b6108e45760405162461bcd60e51b81526004016107fa906127e9565b506000908152600460205260409020546001600160a01b031690565b600d805461090d90612b4d565b80601f016020809104026020016040519081016040528092919081815260200182805461093990612b4d565b80156109865780601f1061095b57610100808354040283529160200191610986565b820191906000526020600020905b81548152906001019060200180831161096957829003601f168201915b505050505081565b600061099982610e47565b9050806001600160a01b0316836001600160a01b031614156109cd5760405162461bcd60e51b81526004016107fa90612932565b806001600160a01b03166109df611616565b6001600160a01b031614806109fb57506109fb81610729611616565b610a175760405162461bcd60e51b81526004016107fa90612650565b610a218383611637565b505050565b600e5481565b60085490565b60146020526000908152604090205481565b60105481565b610a5b610a55611616565b826116a5565b610a775760405162461bcd60e51b81526004016107fa9061299f565b610a2183838361172a565b6000610a8d83610e89565b8210610aab5760405162461bcd60e51b81526004016107fa90612438565b506001600160a01b03919091166000908152600660209081526040808320938352929052205490565b6001600160a01b031660009081526013602052604090205460ff1690565b610afa611616565b6001600160a01b0316610b0b610f18565b6001600160a01b031614610b315760405162461bcd60e51b81526004016107fa90612835565b60128054911515620100000262ff000019909216919091179055565b610b55611616565b6001600160a01b0316610b66610f18565b6001600160a01b031614610b8c5760405162461bcd60e51b81526004016107fa90612835565b6000610b96610f18565b6001600160a01b031647604051610bac90612382565b60006040518083038185875af1925050503d8060008114610be9576040519150601f19603f3d011682016040523d82523d6000602084013e610bee565b606091505b5050905080610bfc57600080fd5b50565b610a2183838360405180602001604052806000815250611214565b60606000610c2783610e89565b905060008167ffffffffffffffff811115610c5257634e487b7160e01b600052604160045260246000fd5b604051908082528060200260200182016040528015610c7b578160200160208202803683370190505b50905060005b82811015610cd057610c938582610a82565b828281518110610cb357634e487b7160e01b600052603260045260246000fd5b602090810291909101015280610cc881612b88565b915050610c81565b509392505050565b610ce0611616565b6001600160a01b0316610cf1610f18565b6001600160a01b031614610d175760405162461bcd60e51b81526004016107fa90612835565b600e55565b610d24611616565b6001600160a01b0316610d35610f18565b6001600160a01b031614610d5b5760405162461bcd60e51b81526004016107fa90612835565b6001600160a01b03166000908152601360205260409020805460ff19166001179055565b6000610d89610a2c565b8210610da75760405162461bcd60e51b81526004016107fa906129f0565b60088281548110610dc857634e487b7160e01b600052603260045260246000fd5b90600052602060002001549050919050565b601254610100900460ff1681565b610df0611616565b6001600160a01b0316610e01610f18565b6001600160a01b031614610e275760405162461bcd60e51b81526004016107fa90612835565b8051610e3a90600b906020840190611ef3565b5050565b60125460ff1681565b6000818152600260205260408120546001600160a01b0316806107b35760405162461bcd60e51b81526004016107fa906126f7565b600b805461090d90612b4d565b60006001600160a01b038216610eb15760405162461bcd60e51b81526004016107fa906126ad565b506001600160a01b031660009081526003602052604090205490565b610ed5611616565b6001600160a01b0316610ee6610f18565b6001600160a01b031614610f0c5760405162461bcd60e51b81526004016107fa90612835565b610f166000611857565b565b600a546001600160a01b031690565b60606001805461083a90612b4d565b60125462010000900460ff1681565b60125460ff1615610f685760405162461bcd60e51b81526004016107fa9061286a565b6000610f72610a2c565b905060008211610f945760405162461bcd60e51b81526004016107fa90612a73565b601054821115610fb65760405162461bcd60e51b81526004016107fa90612770565b600f54610fc38383612abf565b1115610fe15760405162461bcd60e51b81526004016107fa90612740565b610fe9610f18565b6001600160a01b0316336001600160a01b0316146110a65760125462010000900460ff161515600114156110795761102033610ad4565b61103c5760405162461bcd60e51b81526004016107fa90612a3c565b336000908152601460205260409020546011546110598483612abf565b11156110775760405162461bcd60e51b81526004016107fa90612552565b505b81600e546110879190612aeb565b3410156110a65760405162461bcd60e51b81526004016107fa90612973565b60015b828111610a21573360009081526014602052604081208054916110cb83612b88565b909155506110e49050336110df8385612abf565b6118a9565b806110ee81612b88565b9150506110a9565b6110fe611616565b6001600160a01b0316826001600160a01b0316141561112f5760405162461bcd60e51b81526004016107fa906125cd565b806005600061113c611616565b6001600160a01b03908116825260208083019390935260409182016000908120918716808252919093529120805460ff191692151592909217909155611180611616565b6001600160a01b03167f17307eab39ab6107e8899845ad3d59bd9653f200f220920489ca2b5937696c31836040516111b8919061241a565b60405180910390a35050565b6111cc611616565b6001600160a01b03166111dd610f18565b6001600160a01b0316146112035760405162461bcd60e51b81526004016107fa90612835565b6012805461ff001916610100179055565b61122561121f611616565b836116a5565b6112415760405162461bcd60e51b81526004016107fa9061299f565b61124d848484846118c3565b50505050565b60115481565b600c805461090d90612b4d565b60606112718261161a565b61128d5760405162461bcd60e51b81526004016107fa906128e3565b601254610100900460ff1661132e57600d80546112a990612b4d565b80601f01602080910402602001604051908101604052809291908181526020018280546112d590612b4d565b80156113225780601f106112f757610100808354040283529160200191611322565b820191906000526020600020905b81548152906001019060200180831161130557829003601f168201915b505050505090506107b6565b60006113386118f6565b905060008151116113585760405180602001604052806000815250611386565b8061136284611905565b600c604051602001611376939291906122c0565b6040516020818303038152906040525b9392505050565b611395611616565b6001600160a01b03166113a6610f18565b6001600160a01b0316146113cc5760405162461bcd60e51b81526004016107fa90612835565b601155565b600f5481565b6113df611616565b6001600160a01b03166113f0610f18565b6001600160a01b0316146114165760405162461bcd60e51b81526004016107fa90612835565b8051610e3a90600c906020840190611ef3565b6001600160a01b03918216600090815260056020908152604080832093909416825291909152205460ff1690565b61145f611616565b6001600160a01b0316611470610f18565b6001600160a01b0316146114965760405162461bcd60e51b81526004016107fa90612835565b60005b81811015610a21576001601360008585858181106114c757634e487b7160e01b600052603260045260246000fd5b90506020020160208101906114dc9190612023565b6001600160a01b031681526020810191909152604001600020805460ff19169115159190911790558061150e81612b88565b915050611499565b61151e611616565b6001600160a01b031661152f610f18565b6001600160a01b0316146115555760405162461bcd60e51b81526004016107fa90612835565b8051610e3a90600d906020840190611ef3565b611570611616565b6001600160a01b0316611581610f18565b6001600160a01b0316146115a75760405162461bcd60e51b81526004016107fa90612835565b6001600160a01b0381166115cd5760405162461bcd60e51b81526004016107fa906124d5565b610bfc81611857565b60006001600160e01b031982166380ac58cd60e01b148061160757506001600160e01b03198216635b5e139f60e01b145b806107b357506107b382611a20565b3390565b6000908152600260205260409020546001600160a01b0316151590565b600081815260046020526040902080546001600160a01b0319166001600160a01b038416908117909155819061166c82610e47565b6001600160a01b03167f8c5be1e5ebec7d5bd14f71427d1e84f3dd0314c0f7b2291e5b200ac8c7c3b92560405160405180910390a45050565b60006116b08261161a565b6116cc5760405162461bcd60e51b81526004016107fa90612604565b60006116d783610e47565b9050806001600160a01b0316846001600160a01b031614806117125750836001600160a01b0316611707846108bd565b6001600160a01b0316145b8061172257506117228185611429565b949350505050565b826001600160a01b031661173d82610e47565b6001600160a01b0316146117635760405162461bcd60e51b81526004016107fa9061289a565b6001600160a01b0382166117895760405162461bcd60e51b81526004016107fa90612589565b611794838383611a39565b61179f600082611637565b6001600160a01b03831660009081526003602052604081208054600192906117c8908490612b0a565b90915550506001600160a01b03821660009081526003602052604081208054600192906117f6908490612abf565b909155505060008181526002602052604080822080546001600160a01b0319166001600160a01b0386811691821790925591518493918716917fddf252ad1be2c89b69c2b068fc378daa952ba7f163c4a11628f55a4df523b3ef91a4505050565b600a80546001600160a01b038381166001600160a01b0319831681179093556040519116919082907f8be0079c531659141344cd1fd0a4f28419497f9722a3daafe3b4186f6b6457e090600090a35050565b610e3a828260405180602001604052806000815250611ac2565b6118ce84848461172a565b6118da84848484611af5565b61124d5760405162461bcd60e51b81526004016107fa90612483565b6060600b805461083a90612b4d565b60608161192a57506040805180820190915260018152600360fc1b60208201526107b6565b8160005b8115611954578061193e81612b88565b915061194d9050600a83612ad7565b915061192e565b60008167ffffffffffffffff81111561197d57634e487b7160e01b600052604160045260246000fd5b6040519080825280601f01601f1916602001820160405280156119a7576020820181803683370190505b5090505b8415611722576119bc600183612b0a565b91506119c9600a86612ba3565b6119d4906030612abf565b60f81b8183815181106119f757634e487b7160e01b600052603260045260246000fd5b60200101906001600160f81b031916908160001a905350611a19600a86612ad7565b94506119ab565b6001600160e01b031981166301ffc9a760e01b14919050565b611a44838383610a21565b6001600160a01b038316611a6057611a5b81611c10565b611a83565b816001600160a01b0316836001600160a01b031614611a8357611a838382611c54565b6001600160a01b038216611a9f57611a9a81611cf1565b610a21565b826001600160a01b0316826001600160a01b031614610a2157610a218282611dca565b611acc8383611e0e565b611ad96000848484611af5565b610a215760405162461bcd60e51b81526004016107fa90612483565b6000611b09846001600160a01b0316611eed565b15611c0557836001600160a01b031663150b7a02611b25611616565b8786866040518563ffffffff1660e01b8152600401611b479493929190612399565b602060405180830381600087803b158015611b6157600080fd5b505af1925050508015611b91575060408051601f3d908101601f19168201909252611b8e9181019061221a565b60015b611beb573d808015611bbf576040519150601f19603f3d011682016040523d82523d6000602084013e611bc4565b606091505b508051611be35760405162461bcd60e51b81526004016107fa90612483565b805181602001fd5b6001600160e01b031916630a85bd0160e11b149050611722565b506001949350505050565b600880546000838152600960205260408120829055600182018355919091527ff3f7a9fe364faab93b216da50a3214154f22a0a2b415b23a84c8169e8b636ee30155565b60006001611c6184610e89565b611c6b9190612b0a565b600083815260076020526040902054909150808214611cbe576001600160a01b03841660009081526006602090815260408083208584528252808320548484528184208190558352600790915290208190555b5060009182526007602090815260408084208490556001600160a01b039094168352600681528383209183525290812055565b600854600090611d0390600190612b0a565b60008381526009602052604081205460088054939450909284908110611d3957634e487b7160e01b600052603260045260246000fd5b906000526020600020015490508060088381548110611d6857634e487b7160e01b600052603260045260246000fd5b6000918252602080832090910192909255828152600990915260408082208490558582528120556008805480611dae57634e487b7160e01b600052603160045260246000fd5b6001900381819060005260206000200160009055905550505050565b6000611dd583610e89565b6001600160a01b039093166000908152600660209081526040808320868452825280832085905593825260079052919091209190915550565b6001600160a01b038216611e345760405162461bcd60e51b81526004016107fa906127b4565b611e3d8161161a565b15611e5a5760405162461bcd60e51b81526004016107fa9061251b565b611e6660008383611a39565b6001600160a01b0382166000908152600360205260408120805460019290611e8f908490612abf565b909155505060008181526002602052604080822080546001600160a01b0319166001600160a01b03861690811790915590518392907fddf252ad1be2c89b69c2b068fc378daa952ba7f163c4a11628f55a4df523b3ef908290a45050565b3b151590565b828054611eff90612b4d565b90600052602060002090601f016020900481019282611f215760008555611f67565b82601f10611f3a57805160ff1916838001178555611f67565b82800160010185558215611f67579182015b82811115611f67578251825591602001919060010190611f4c565b50611f73929150611f77565b5090565b5b80821115611f735760008155600101611f78565b600067ffffffffffffffff80841115611fa757611fa7612be3565b604051601f8501601f191681016020018281118282101715611fcb57611fcb612be3565b604052848152915081838501861015611fe357600080fd5b8484602083013760006020868301015250509392505050565b80356001600160a01b03811681146107b657600080fd5b803580151581146107b657600080fd5b600060208284031215612034578081fd5b61138682611ffc565b6000806040838503121561204f578081fd5b61205883611ffc565b915061206660208401611ffc565b90509250929050565b600080600060608486031215612083578081fd5b61208c84611ffc565b925061209a60208501611ffc565b9150604084013590509250925092565b600080600080608085870312156120bf578081fd5b6120c885611ffc565b93506120d660208601611ffc565b925060408501359150606085013567ffffffffffffffff8111156120f8578182fd5b8501601f81018713612108578182fd5b61211787823560208401611f8c565b91505092959194509250565b60008060408385031215612135578182fd5b61213e83611ffc565b915061206660208401612013565b6000806040838503121561215e578182fd5b61216783611ffc565b946020939093013593505050565b60008060208385031215612187578182fd5b823567ffffffffffffffff8082111561219e578384fd5b818501915085601f8301126121b1578384fd5b8135818111156121bf578485fd5b86602080830285010111156121d2578485fd5b60209290920196919550909350505050565b6000602082840312156121f5578081fd5b61138682612013565b60006020828403121561220f578081fd5b813561138681612bf9565b60006020828403121561222b578081fd5b815161138681612bf9565b600060208284031215612247578081fd5b813567ffffffffffffffff81111561225d578182fd5b8201601f8101841361226d578182fd5b61172284823560208401611f8c565b60006020828403121561228d578081fd5b5035919050565b600081518084526122ac816020860160208601612b21565b601f01601f19169290920160200192915050565b6000845160206122d38285838a01612b21565b8551918401916122e68184848a01612b21565b855492019183906002810460018083168061230257607f831692505b85831081141561232057634e487b7160e01b88526022600452602488fd5b808015612334576001811461234557612371565b60ff19851688528388019550612371565b61234e8b612ab3565b895b858110156123695781548a820152908401908801612350565b505083880195505b50939b9a5050505050505050505050565b90565b6001600160a01b0391909116815260200190565b6001600160a01b03858116825284166020820152604081018390526080606082018190526000906123cc90830184612294565b9695505050505050565b6020808252825182820181905260009190848201906040850190845b8181101561240e578351835292840192918401916001016123f2565b50909695505050505050565b901515815260200190565b6000602082526113866020830184612294565b6020808252602b908201527f455243373231456e756d657261626c653a206f776e657220696e646578206f7560408201526a74206f6620626f756e647360a81b606082015260800190565b60208082526032908201527f4552433732313a207472616e7366657220746f206e6f6e20455243373231526560408201527131b2b4bb32b91034b6b83632b6b2b73a32b960711b606082015260800190565b60208082526026908201527f4f776e61626c653a206e6577206f776e657220697320746865207a65726f206160408201526564647265737360d01b606082015260800190565b6020808252601c908201527f4552433732313a20746f6b656e20616c7265616479206d696e74656400000000604082015260600190565b6020808252601c908201527f6d6178204e465420706572206164647265737320657863656564656400000000604082015260600190565b60208082526024908201527f4552433732313a207472616e7366657220746f20746865207a65726f206164646040820152637265737360e01b606082015260800190565b60208082526019908201527f4552433732313a20617070726f766520746f2063616c6c657200000000000000604082015260600190565b6020808252602c908201527f4552433732313a206f70657261746f7220717565727920666f72206e6f6e657860408201526b34b9ba32b73a103a37b5b2b760a11b606082015260800190565b60208082526038908201527f4552433732313a20617070726f76652063616c6c6572206973206e6f74206f7760408201527f6e6572206e6f7220617070726f76656420666f7220616c6c0000000000000000606082015260800190565b6020808252602a908201527f4552433732313a2062616c616e636520717565727920666f7220746865207a65604082015269726f206164647265737360b01b606082015260800190565b60208082526029908201527f4552433732313a206f776e657220717565727920666f72206e6f6e657869737460408201526832b73a103a37b5b2b760b91b606082015260800190565b6020808252601690820152751b585e08139195081b1a5b5a5d08195e18d95959195960521b604082015260600190565b60208082526024908201527f6d6178206d696e7420616d6f756e74207065722073657373696f6e20657863656040820152631959195960e21b606082015260800190565b6020808252818101527f4552433732313a206d696e7420746f20746865207a65726f2061646472657373604082015260600190565b6020808252602c908201527f4552433732313a20617070726f76656420717565727920666f72206e6f6e657860408201526b34b9ba32b73a103a37b5b2b760a11b606082015260800190565b6020808252818101527f4f776e61626c653a2063616c6c6572206973206e6f7420746865206f776e6572604082015260600190565b6020808252601690820152751d1a194818dbdb9d1c9858dd081a5cc81c185d5cd95960521b604082015260600190565b60208082526029908201527f4552433732313a207472616e73666572206f6620746f6b656e2074686174206960408201526839903737ba1037bbb760b91b606082015260800190565b6020808252602f908201527f4552433732314d657461646174613a2055524920717565727920666f72206e6f60408201526e3732bc34b9ba32b73a103a37b5b2b760891b606082015260800190565b60208082526021908201527f4552433732313a20617070726f76616c20746f2063757272656e74206f776e656040820152603960f91b606082015260800190565b602080825260129082015271696e73756666696369656e742066756e647360701b604082015260600190565b60208082526031908201527f4552433732313a207472616e736665722063616c6c6572206973206e6f74206f6040820152701ddb995c881b9bdc88185c1c1c9bdd9959607a1b606082015260800190565b6020808252602c908201527f455243373231456e756d657261626c653a20676c6f62616c20696e646578206f60408201526b7574206f6620626f756e647360a01b606082015260800190565b60208082526017908201527f75736572206973206e6f742077686974656c6973746564000000000000000000604082015260600190565b6020808252601b908201527f6e65656420746f206d696e74206174206c656173742031204e46540000000000604082015260600190565b90815260200190565b60009081526020902090565b60008219821115612ad257612ad2612bb7565b500190565b600082612ae657612ae6612bcd565b500490565b6000816000190483118215151615612b0557612b05612bb7565b500290565b600082821015612b1c57612b1c612bb7565b500390565b60005b83811015612b3c578181015183820152602001612b24565b8381111561124d5750506000910152565b600281046001821680612b6157607f821691505b60208210811415612b8257634e487b7160e01b600052602260045260246000fd5b50919050565b6000600019821415612b9c57612b9c612bb7565b5060010190565b600082612bb257612bb2612bcd565b500690565b634e487b7160e01b600052601160045260246000fd5b634e487b7160e01b600052601260045260246000fd5b634e487b7160e01b600052604160045260246000fd5b6001600160e01b031981168114610bfc57600080fdfea26469706673582212200c25592ad832959d1411aa6dc4b5b66674b8092d8f280fc532accd4d33e4c5ec64736f6c63430008000033",
  "immutableReferences": {},
  "source": "\n// SPDX-License-Identifier: GPL-3.0\n\n\n\n/*\n\n\n                                                                                                               \n,--------.,--.                  ,---.  ,--.       ,--.             ,-----.,--.   ,--.,--------.,------.        \n'--.  .--'|  ,---.  ,---.      /  O  \\ |  | ,---. |  ,---.  ,--,--.|  |) /_\\  `.'  / '--.  .--'|  .---' ,---.  \n   |  |   |  .-.  || .-. :    |  .-.  ||  || .-. ||  .-.  |' ,-.  ||  .-.  \\'.    /     |  |   |  `--, (  .-'  \n   |  |   |  | |  |\\   --.    |  | |  ||  || '-' '|  | |  |\\ '-'  ||  '--' /  |  |      |  |   |  `---..-'  `) \n   `--'   `--' `--' `----'    `--' `--'`--'|  |-' `--' `--' `--`--'`------'   `--'      `--'   `------'`----'  \n                                           `--'                                                                \n,--.                 ,---.                   ,--.  ,--.                                                        \n|  |-.,--. ,--.     /  O  \\ ,--,--,--.,--.--.`--',-'  '-. ,--,--.                                              \n| .-. '\\  '  /     |  .-.  ||        ||  .--',--.'-.  .-'' ,-.  |                                              \n| `-' | \\   '      |  | |  ||  |  |  ||  |   |  |  |  |  \\ '-'  |                                              \n `---'.-'  /       `--' `--'`--`--`--'`--'   `--'  `--'   `--`--'                                              \n      `---'                                                                                                    \n\nPopElon\nWWW..THEALPHABYTES.COM\nhttps://discord.gg/pSBMtAttbJ\nwww.twitter.com/artbyamrita\n\n\n*/\n\n\n\n// File: contracts/AlphaBytes.sol\n\n\npragma solidity >=0.7.0 <0.9.0;\n\nimport \"./Address.sol\";\nimport \"./Context.sol\";\nimport \"./ERC165.sol\";\nimport \"./ERC721.sol\";\nimport \"./ERC721Enumerable.sol\";\nimport \"./IERC165.sol\";\nimport \"./IERC721.sol\";\nimport \"./IERC721Enumerable.sol\";\nimport \"./IERC721Metadata.sol\";\nimport \"./IERC721Receiver.sol\";\nimport \"./AlphaBytes.sol\";\nimport \"./Ownable.sol\";\nimport \"./Strings.sol\";\nimport \"./ERC20.sol\";\n\n\ncontract AlphaBytes is ERC721Enumerable, Ownable {\n  using Strings for uint256;\n\n  string public baseURI;\n  string public baseExtension = \".json\";\n  string public notRevealedUri;\n  uint256 public cost = 1.0 ether;\n  uint256 public maxSupply = 145;\n  uint256 public maxMintAmount = 10;\n  uint256 public nftPerAddressLimit = 10;\n  bool public paused = false;\n  bool public revealed = false;\n  bool public onlyWhitelisted = true;\n  mapping(address => bool) public whitelistedAddresses;\n  mapping(address => uint256) public addressMintedBalance;\n\n\n  constructor(\n    string memory _name,\n    string memory _symbol,\n    string memory _initBaseURI,\n    string memory _initNotRevealedUri\n  ) ERC721(_name, _symbol) {\n    setBaseURI(_initBaseURI);\n    setNotRevealedURI(_initNotRevealedUri);\n  }\n\n  // internal\n  function _baseURI() internal view virtual override returns (string memory) {\n    return baseURI;\n  }\n\n  // public\n  function mint(uint256 _mintAmount) public payable {\n    require(!paused, \"the contract is paused\");\n    uint256 supply = totalSupply();\n    require(_mintAmount > 0, \"need to mint at least 1 NFT\");\n    require(_mintAmount <= maxMintAmount, \"max mint amount per session exceeded\");\n    require(supply + _mintAmount <= maxSupply, \"max NFT limit exceeded\");\n\n    if (msg.sender != owner()) {\n        if(onlyWhitelisted == true) {\n            require(isWhitelisted(msg.sender), \"user is not whitelisted\");\n            uint256 ownerMintedCount = addressMintedBalance[msg.sender];\n            require(ownerMintedCount + _mintAmount <= nftPerAddressLimit, \"max NFT per address exceeded\");\n        }\n        require(msg.value >= cost * _mintAmount, \"insufficient funds\");\n    }\n    \n    for (uint256 i = 1; i <= _mintAmount; i++) {\n        addressMintedBalance[msg.sender]++;\n      _safeMint(msg.sender, supply + i);\n    }\n  }\n  \n  function isWhitelisted(address _user) public view returns (bool) {\n    return  whitelistedAddresses[_user];\n  }\n\n  function walletOfOwner(address _owner)\n    public\n    view\n    returns (uint256[] memory)\n  {\n    uint256 ownerTokenCount = balanceOf(_owner);\n    uint256[] memory tokenIds = new uint256[](ownerTokenCount);\n    for (uint256 i; i < ownerTokenCount; i++) {\n      tokenIds[i] = tokenOfOwnerByIndex(_owner, i);\n    }\n    return tokenIds;\n  }\n\n  function tokenURI(uint256 tokenId)\n    public\n    view\n    virtual\n    override\n    returns (string memory)\n  {\n    require(\n      _exists(tokenId),\n      \"ERC721Metadata: URI query for nonexistent token\"\n    );\n    \n    if(revealed == false) {\n        return notRevealedUri;\n    }\n\n    string memory currentBaseURI = _baseURI();\n    return bytes(currentBaseURI).length > 0\n        ? string(abi.encodePacked(currentBaseURI, tokenId.toString(), baseExtension))\n        : \"\";\n  }\n\n  //only owner\n  function reveal() public onlyOwner {\n      revealed = true;\n  }\n  \n  function setNftPerAddressLimit(uint256 _limit) public onlyOwner {\n    nftPerAddressLimit = _limit;\n  }\n  \n  function setCost(uint256 _newCost) public onlyOwner {\n    cost = _newCost;\n  }\n\n//   function setmaxMintAmount(uint256 _newmaxMintAmount) public onlyOwner {\n//     maxMintAmount = _newmaxMintAmount;\n//   }\n\n  function setBaseURI(string memory _newBaseURI) public onlyOwner {\n    baseURI = _newBaseURI;\n  }\n\n  function setBaseExtension(string memory _newBaseExtension) public onlyOwner {\n    baseExtension = _newBaseExtension;\n  }\n  \n  function setNotRevealedURI(string memory _notRevealedURI) public onlyOwner {\n    notRevealedUri = _notRevealedURI;\n  }\n\n  function pause(bool _state) public onlyOwner {\n    paused = _state;\n  }\n  \n  function setOnlyWhitelisted(bool _state) public onlyOwner {\n    onlyWhitelisted = _state;\n  }\n  \n  function whitelistUsers(address[] calldata _users) public onlyOwner {\n    for(uint i=0;i<_users.length;i++){\n        whitelistedAddresses[_users[i]]=true;\n    }\n  }\n function whitelistUser(address _user) public onlyOwner {\n        whitelistedAddresses[_user]=true;    \n  }\n  function withdraw() public payable onlyOwner {\n\n    (bool os, ) = payable(owner()).call{value: address(this).balance}(\"\");\n    require(os);\n\n  }\n}\n",
  "sourcePath": "/Users/futjrn/Documents/Hera/amrita/nft/contracts/AlphaBytes.sol",
  "compiler": {
    "name": "solc",
    "version": "0.8.0+commit.c7dfd78e.Emscripten.clang"
  },
  "schemaVersion": "3.4.5",
  "updatedAt": "2022-03-05T15:47:30.503Z",
  "devdoc": {
    "kind": "dev",
    "methods": {
      "approve(address,uint256)": {
        "details": "See {IERC721-approve}."
      },
      "balanceOf(address)": {
        "details": "See {IERC721-balanceOf}."
      },
      "getApproved(uint256)": {
        "details": "See {IERC721-getApproved}."
      },
      "isApprovedForAll(address,address)": {
        "details": "See {IERC721-isApprovedForAll}."
      },
      "name()": {
        "details": "See {IERC721Metadata-name}."
      },
      "owner()": {
        "details": "Returns the address of the current owner."
      },
      "ownerOf(uint256)": {
        "details": "See {IERC721-ownerOf}."
      },
      "renounceOwnership()": {
        "details": "Leaves the contract without owner. It will not be possible to call `onlyOwner` functions anymore. Can only be called by the current owner. NOTE: Renouncing ownership will leave the contract without an owner, thereby removing any functionality that is only available to the owner."
      },
      "safeTransferFrom(address,address,uint256)": {
        "details": "See {IERC721-safeTransferFrom}."
      },
      "safeTransferFrom(address,address,uint256,bytes)": {
        "details": "See {IERC721-safeTransferFrom}."
      },
      "setApprovalForAll(address,bool)": {
        "details": "See {IERC721-setApprovalForAll}."
      },
      "supportsInterface(bytes4)": {
        "details": "See {IERC165-supportsInterface}."
      },
      "symbol()": {
        "details": "See {IERC721Metadata-symbol}."
      },
      "tokenByIndex(uint256)": {
        "details": "See {IERC721Enumerable-tokenByIndex}."
      },
      "tokenOfOwnerByIndex(address,uint256)": {
        "details": "See {IERC721Enumerable-tokenOfOwnerByIndex}."
      },
      "tokenURI(uint256)": {
        "details": "See {IERC721Metadata-tokenURI}."
      },
      "totalSupply()": {
        "details": "See {IERC721Enumerable-totalSupply}."
      },
      "transferFrom(address,address,uint256)": {
        "details": "See {IERC721-transferFrom}."
      },
      "transferOwnership(address)": {
        "details": "Transfers ownership of the contract to a new account (`newOwner`). Can only be called by the current owner."
      }
    },
    "version": 1
  },
  "userdoc": {
    "kind": "user",
    "methods": {},
    "version": 1
  }
}